{
  "_format": "hh-sol-artifact-1",
  "contractName": "AgentWork",
  "sourceName": "contracts/AgentWork.sol",
  "abi": [
    {
      "inputs": [],
      "stateMutability": "nonpayable",
      "type": "constructor"
    },
    {
      "anonymous": false,
      "inputs": [
        {
          "indexed": true,
          "internalType": "uint256",
          "name": "jobId",
          "type": "uint256"
        }
      ],
      "name": "JobCompleted",
      "type": "event"
    },
    {
      "anonymous": false,
      "inputs": [
        {
          "indexed": true,
          "internalType": "uint256",
          "name": "jobId",
          "type": "uint256"
        },
        {
          "indexed": true,
          "internalType": "address",
          "name": "employer",
          "type": "address"
        },
        {
          "indexed": false,
          "internalType": "uint256",
          "name": "budget",
          "type": "uint256"
        }
      ],
      "name": "JobCreated",
      "type": "event"
    },
    {
      "anonymous": false,
      "inputs": [
        {
          "indexed": true,
          "internalType": "uint256",
          "name": "jobId",
          "type": "uint256"
        },
        {
          "indexed": true,
          "internalType": "address",
          "name": "worker",
          "type": "address"
        },
        {
          "indexed": false,
          "internalType": "uint256",
          "name": "amount",
          "type": "uint256"
        }
      ],
      "name": "JobPaid",
      "type": "event"
    },
    {
      "anonymous": false,
      "inputs": [
        {
          "indexed": true,
          "internalType": "uint256",
          "name": "jobId",
          "type": "uint256"
        },
        {
          "indexed": true,
          "internalType": "address",
          "name": "worker",
          "type": "address"
        }
      ],
      "name": "JobTaken",
      "type": "event"
    },
    {
      "anonymous": false,
      "inputs": [
        {
          "indexed": true,
          "internalType": "address",
          "name": "agent",
          "type": "address"
        }
      ],
      "name": "MemberJoined",
      "type": "event"
    },
    {
      "inputs": [
        {
          "internalType": "uint256",
          "name": "_jobId",
          "type": "uint256"
        }
      ],
      "name": "acceptJob",
      "outputs": [],
      "stateMutability": "nonpayable",
      "type": "function"
    },
    {
      "inputs": [
        {
          "internalType": "address",
          "name": "",
          "type": "address"
        }
      ],
      "name": "agents",
      "outputs": [
        {
          "internalType": "bool",
          "name": "isMember",
          "type": "bool"
        },
        {
          "internalType": "string",
          "name": "metadata",
          "type": "string"
        },
        {
          "internalType": "uint256",
          "name": "reputation",
          "type": "uint256"
        },
        {
          "internalType": "uint256",
          "name": "jobsCompleted",
          "type": "uint256"
        }
      ],
      "stateMutability": "view",
      "type": "function"
    },
    {
      "inputs": [],
      "name": "entryFee",
      "outputs": [
        {
          "internalType": "uint256",
          "name": "",
          "type": "uint256"
        }
      ],
      "stateMutability": "view",
      "type": "function"
    },
    {
      "inputs": [
        {
          "internalType": "uint256",
          "name": "",
          "type": "uint256"
        }
      ],
      "name": "jobs",
      "outputs": [
        {
          "internalType": "uint256",
          "name": "id",
          "type": "uint256"
        },
        {
          "internalType": "address",
          "name": "employer",
          "type": "address"
        },
        {
          "internalType": "address",
          "name": "worker",
          "type": "address"
        },
        {
          "internalType": "uint256",
          "name": "budget",
          "type": "uint256"
        },
        {
          "internalType": "string",
          "name": "description",
          "type": "string"
        },
        {
          "internalType": "bool",
          "name": "isCompleted",
          "type": "bool"
        },
        {
          "internalType": "bool",
          "name": "isPaid",
          "type": "bool"
        }
      ],
      "stateMutability": "view",
      "type": "function"
    },
    {
      "inputs": [
        {
          "internalType": "string",
          "name": "_metadata",
          "type": "string"
        }
      ],
      "name": "joinPlatform",
      "outputs": [],
      "stateMutability": "payable",
      "type": "function"
    },
    {
      "inputs": [],
      "name": "nextJobId",
      "outputs": [
        {
          "internalType": "uint256",
          "name": "",
          "type": "uint256"
        }
      ],
      "stateMutability": "view",
      "type": "function"
    },
    {
      "inputs": [],
      "name": "owner",
      "outputs": [
        {
          "internalType": "address",
          "name": "",
          "type": "address"
        }
      ],
      "stateMutability": "view",
      "type": "function"
    },
    {
      "inputs": [],
      "name": "platformFeeBps",
      "outputs": [
        {
          "internalType": "uint256",
          "name": "",
          "type": "uint256"
        }
      ],
      "stateMutability": "view",
      "type": "function"
    },
    {
      "inputs": [
        {
          "internalType": "string",
          "name": "_description",
          "type": "string"
        }
      ],
      "name": "postJob",
      "outputs": [],
      "stateMutability": "payable",
      "type": "function"
    },
    {
      "inputs": [
        {
          "internalType": "uint256",
          "name": "_jobId",
          "type": "uint256"
        }
      ],
      "name": "releasePayment",
      "outputs": [],
      "stateMutability": "nonpayable",
      "type": "function"
    },
    {
      "inputs": [],
      "name": "withdrawFees",
      "outputs": [],
      "stateMutability": "nonpayable",
      "type": "function"
    }
  ],
  "bytecode": "0x608060405266071afd498d00006001556101f460025534801561002157600080fd5b50336000806101000a81548173ffffffffffffffffffffffffffffffffffffffff021916908373ffffffffffffffffffffffffffffffffffffffff160217905550611d9e806100716000396000f3fe60806040526004361061009c5760003560e01c806363b2f3c91161006457806363b2f3c91461016d57806388685cd9146101965780638b7d3e64146101bf5780638da5cb5b146101db578063b0c2aa5e14610206578063fd66091e146102315761009c565b8063072ea61c146100a1578063180aedf3146100cc57806322dcd13e1461010f57806327a6d1d71461013a578063476343ee14610156575b600080fd5b3480156100ad57600080fd5b506100b6610271565b6040516100c391906110e4565b60405180910390f35b3480156100d857600080fd5b506100f360048036038101906100ee9190611135565b610277565b604051610106979695949392919061124e565b60405180910390f35b34801561011b57600080fd5b5061012461039b565b60405161013191906110e4565b60405180910390f35b610154600480360381019061014f9190611329565b6103a1565b005b34801561016257600080fd5b5061016b61060d565b005b34801561017957600080fd5b50610194600480360381019061018f9190611135565b610704565b005b3480156101a257600080fd5b506101bd60048036038101906101b89190611135565b6109ed565b005b6101d960048036038101906101d49190611329565b610dca565b005b3480156101e757600080fd5b506101f0610fdc565b6040516101fd9190611376565b60405180910390f35b34801561021257600080fd5b5061021b611000565b60405161022891906110e4565b60405180910390f35b34801561023d57600080fd5b50610258600480360381019061025391906113bd565b611006565b60405161026894939291906113ea565b60405180910390f35b60015481565b60046020528060005260406000206000915090508060000154908060010160009054906101000a900473ffffffffffffffffffffffffffffffffffffffff16908060020160009054906101000a900473ffffffffffffffffffffffffffffffffffffffff16908060030154908060040180546102f290611465565b80601f016020809104026020016040519081016040528092919081815260200182805461031e90611465565b801561036b5780601f106103405761010080835404028352916020019161036b565b820191906000526020600020905b81548152906001019060200180831161034e57829003601f168201915b5050505050908060050160009054906101000a900460ff16908060050160019054906101000a900460ff16905087565b60025481565b600034116103e4576040517f08c379a00000000000000000000000000000000000000000000000000000000081526004016103db906114e2565b60405180910390fd5b6040518060e0016040528060055481526020013373ffffffffffffffffffffffffffffffffffffffff168152602001600073ffffffffffffffffffffffffffffffffffffffff16815260200134815260200183838080601f016020809104026020016040519081016040528093929190818152602001838380828437600081840152601f19601f820116905080830192505050505050508152602001600015158152602001600015158152506004600060055481526020019081526020016000206000820151816000015560208201518160010160006101000a81548173ffffffffffffffffffffffffffffffffffffffff021916908373ffffffffffffffffffffffffffffffffffffffff16021790555060408201518160020160006101000a81548173ffffffffffffffffffffffffffffffffffffffff021916908373ffffffffffffffffffffffffffffffffffffffff16021790555060608201518160030155608082015181600401908161055c91906116dd565b5060a08201518160050160006101000a81548160ff02191690831515021790555060c08201518160050160016101000a81548160ff0219169083151502179055509050503373ffffffffffffffffffffffffffffffffffffffff166005547f8678ba2d99dba901dafc51009f8d402d37a5a0275752cf0e263b827aeca906f2346040516105e991906110e4565b60405180910390a360056000815480929190610604906117de565b91905055505050565b60008054906101000a900473ffffffffffffffffffffffffffffffffffffffff1673ffffffffffffffffffffffffffffffffffffffff163373ffffffffffffffffffffffffffffffffffffffff161461069b576040517f08c379a000000000000000000000000000000000000000000000000000000000815260040161069290611872565b60405180910390fd5b60008054906101000a900473ffffffffffffffffffffffffffffffffffffffff1673ffffffffffffffffffffffffffffffffffffffff166108fc479081150290604051600060405180830381858888f19350505050158015610701573d6000803e3d6000fd5b50565b6000600460008381526020019081526020016000209050600073ffffffffffffffffffffffffffffffffffffffff168160010160009054906101000a900473ffffffffffffffffffffffffffffffffffffffff1673ffffffffffffffffffffffffffffffffffffffff16036107ae576040517f08c379a00000000000000000000000000000000000000000000000000000000081526004016107a5906118de565b60405180910390fd5b600073ffffffffffffffffffffffffffffffffffffffff168160020160009054906101000a900473ffffffffffffffffffffffffffffffffffffffff1673ffffffffffffffffffffffffffffffffffffffff1614610841576040517f08c379a00000000000000000000000000000000000000000000000000000000081526004016108389061194a565b60405180910390fd5b600360003373ffffffffffffffffffffffffffffffffffffffff1673ffffffffffffffffffffffffffffffffffffffff16815260200190815260200160002060000160009054906101000a900460ff166108d0576040517f08c379a00000000000000000000000000000000000000000000000000000000081526004016108c7906119b6565b60405180910390fd5b8060010160009054906101000a900473ffffffffffffffffffffffffffffffffffffffff1673ffffffffffffffffffffffffffffffffffffffff163373ffffffffffffffffffffffffffffffffffffffff1603610962576040517f08c379a000000000000000000000000000000000000000000000000000000000815260040161095990611a22565b60405180910390fd5b338160020160006101000a81548173ffffffffffffffffffffffffffffffffffffffff021916908373ffffffffffffffffffffffffffffffffffffffff1602179055503373ffffffffffffffffffffffffffffffffffffffff16827f63d05f037a34bfd9732c85be51fc52a421f621694ced20c350480d44d6a3b3fa60405160405180910390a35050565b60006004600083815260200190815260200160002090508060010160009054906101000a900473ffffffffffffffffffffffffffffffffffffffff1673ffffffffffffffffffffffffffffffffffffffff163373ffffffffffffffffffffffffffffffffffffffff1614610a96576040517f08c379a0000000000000000000000000000000000000000000000000000000008152600401610a8d90611a8e565b60405180910390fd5b600073ffffffffffffffffffffffffffffffffffffffff168160020160009054906101000a900473ffffffffffffffffffffffffffffffffffffffff1673ffffffffffffffffffffffffffffffffffffffff1603610b29576040517f08c379a0000000000000000000000000000000000000000000000000000000008152600401610b2090611afa565b60405180910390fd5b8060050160019054906101000a900460ff1615610b7b576040517f08c379a0000000000000000000000000000000000000000000000000000000008152600401610b7290611b66565b60405180910390fd5b60018160050160006101000a81548160ff02191690831515021790555060018160050160016101000a81548160ff02191690831515021790555060006127106002548360030154610bcc9190611b86565b610bd69190611bf7565b90506000818360030154610bea9190611c28565b9050600360008460020160009054906101000a900473ffffffffffffffffffffffffffffffffffffffff1673ffffffffffffffffffffffffffffffffffffffff1673ffffffffffffffffffffffffffffffffffffffff1681526020019081526020016000206003016000815480929190610c63906117de565b9190505550600a600360008560020160009054906101000a900473ffffffffffffffffffffffffffffffffffffffff1673ffffffffffffffffffffffffffffffffffffffff1673ffffffffffffffffffffffffffffffffffffffff1681526020019081526020016000206002016000828254610cdf9190611c5c565b925050819055508260020160009054906101000a900473ffffffffffffffffffffffffffffffffffffffff1673ffffffffffffffffffffffffffffffffffffffff166108fc829081150290604051600060405180830381858888f19350505050158015610d50573d6000803e3d6000fd5b508260020160009054906101000a900473ffffffffffffffffffffffffffffffffffffffff1673ffffffffffffffffffffffffffffffffffffffff16847f9c9c7be79d0a80d50ba29cc761ba8a73fe24080e7acf62b83bf2dbf0c5096b0c83604051610dbc91906110e4565b60405180910390a350505050565b600154341015610e0f576040517f08c379a0000000000000000000000000000000000000000000000000000000008152600401610e0690611cdc565b60405180910390fd5b600360003373ffffffffffffffffffffffffffffffffffffffff1673ffffffffffffffffffffffffffffffffffffffff16815260200190815260200160002060000160009054906101000a900460ff1615610e9f576040517f08c379a0000000000000000000000000000000000000000000000000000000008152600401610e9690611d48565b60405180910390fd5b604051806080016040528060011515815260200183838080601f016020809104026020016040519081016040528093929190818152602001838380828437600081840152601f19601f820116905080830192505050505050508152602001600081526020016000815250600360003373ffffffffffffffffffffffffffffffffffffffff1673ffffffffffffffffffffffffffffffffffffffff16815260200190815260200160002060008201518160000160006101000a81548160ff0219169083151502179055506020820151816001019081610f7d91906116dd565b5060408201518160020155606082015181600301559050503373ffffffffffffffffffffffffffffffffffffffff167f0abf3b3f643594d958297062a019458e27d7766629590ac621aa1000fa1298ab60405160405180910390a25050565b60008054906101000a900473ffffffffffffffffffffffffffffffffffffffff1681565b60055481565b60036020528060005260406000206000915090508060000160009054906101000a900460ff169080600101805461103c90611465565b80601f016020809104026020016040519081016040528092919081815260200182805461106890611465565b80156110b55780601f1061108a576101008083540402835291602001916110b5565b820191906000526020600020905b81548152906001019060200180831161109857829003601f168201915b5050505050908060020154908060030154905084565b6000819050919050565b6110de816110cb565b82525050565b60006020820190506110f960008301846110d5565b92915050565b600080fd5b600080fd5b611112816110cb565b811461111d57600080fd5b50565b60008135905061112f81611109565b92915050565b60006020828403121561114b5761114a6110ff565b5b600061115984828501611120565b91505092915050565b600073ffffffffffffffffffffffffffffffffffffffff82169050919050565b600061118d82611162565b9050919050565b61119d81611182565b82525050565b600081519050919050565b600082825260208201905092915050565b60005b838110156111dd5780820151818401526020810190506111c2565b60008484015250505050565b6000601f19601f8301169050919050565b6000611205826111a3565b61120f81856111ae565b935061121f8185602086016111bf565b611228816111e9565b840191505092915050565b60008115159050919050565b61124881611233565b82525050565b600060e082019050611263600083018a6110d5565b6112706020830189611194565b61127d6040830188611194565b61128a60608301876110d5565b818103608083015261129c81866111fa565b90506112ab60a083018561123f565b6112b860c083018461123f565b98975050505050505050565b600080fd5b600080fd5b600080fd5b60008083601f8401126112e9576112e86112c4565b5b8235905067ffffffffffffffff811115611306576113056112c9565b5b602083019150836001820283011115611322576113216112ce565b5b9250929050565b600080602083850312156113405761133f6110ff565b5b600083013567ffffffffffffffff81111561135e5761135d611104565b5b61136a858286016112d3565b92509250509250929050565b600060208201905061138b6000830184611194565b92915050565b61139a81611182565b81146113a557600080fd5b50565b6000813590506113b781611391565b92915050565b6000602082840312156113d3576113d26110ff565b5b60006113e1848285016113a8565b91505092915050565b60006080820190506113ff600083018761123f565b818103602083015261141181866111fa565b905061142060408301856110d5565b61142d60608301846110d5565b95945050505050565b7f4e487b7100000000000000000000000000000000000000000000000000000000600052602260045260246000fd5b6000600282049050600182168061147d57607f821691505b6020821081036114905761148f611436565b5b50919050565b7f427564676574206d757374206265203e20300000000000000000000000000000600082015250565b60006114cc6012836111ae565b91506114d782611496565b602082019050919050565b600060208201905081810360008301526114fb816114bf565b9050919050565b7f4e487b7100000000000000000000000000000000000000000000000000000000600052604160045260246000fd5b60008190508160005260206000209050919050565b60006020601f8301049050919050565b600082821b905092915050565b6000600883026115937fffffffffffffffffffffffffffffffffffffffffffffffffffffffffffffffff82611556565b61159d8683611556565b95508019841693508086168417925050509392505050565b6000819050919050565b60006115da6115d56115d0846110cb565b6115b5565b6110cb565b9050919050565b6000819050919050565b6115f4836115bf565b611608611600826115e1565b848454611563565b825550505050565b600090565b61161d611610565b6116288184846115eb565b505050565b5b8181101561164c57611641600082611615565b60018101905061162e565b5050565b601f8211156116915761166281611531565b61166b84611546565b8101602085101561167a578190505b61168e61168685611546565b83018261162d565b50505b505050565b600082821c905092915050565b60006116b460001984600802611696565b1980831691505092915050565b60006116cd83836116a3565b9150826002028217905092915050565b6116e6826111a3565b67ffffffffffffffff8111156116ff576116fe611502565b5b6117098254611465565b611714828285611650565b600060209050601f8311600181146117475760008415611735578287015190505b61173f85826116c1565b8655506117a7565b601f19841661175586611531565b60005b8281101561177d57848901518255600182019150602085019450602081019050611758565b8683101561179a5784890151611796601f8916826116a3565b8355505b6001600288020188555050505b505050505050565b7f4e487b7100000000000000000000000000000000000000000000000000000000600052601160045260246000fd5b60006117e9826110cb565b91507fffffffffffffffffffffffffffffffffffffffffffffffffffffffffffffffff820361181b5761181a6117af565b5b600182019050919050565b7f4f6e6c79206f776e657200000000000000000000000000000000000000000000600082015250565b600061185c600a836111ae565b915061186782611826565b602082019050919050565b6000602082019050818103600083015261188b8161184f565b9050919050565b7f4a6f6220646f6573206e6f742065786973740000000000000000000000000000600082015250565b60006118c86012836111ae565b91506118d382611892565b602082019050919050565b600060208201905081810360008301526118f7816118bb565b9050919050565b7f4a6f6220616c72656164792074616b656e000000000000000000000000000000600082015250565b60006119346011836111ae565b915061193f826118fe565b602082019050919050565b6000602082019050818103600083015261196381611927565b9050919050565b7f4d7573742062652061206d656d62657220746f20776f726b0000000000000000600082015250565b60006119a06018836111ae565b91506119ab8261196a565b602082019050919050565b600060208201905081810360008301526119cf81611993565b9050919050565b7f43616e6e6f7420616363657074206f776e206a6f620000000000000000000000600082015250565b6000611a0c6015836111ae565b9150611a17826119d6565b602082019050919050565b60006020820190508181036000830152611a3b816119ff565b9050919050565b7f4f6e6c7920656d706c6f7965722063616e2072656c656173652066756e647300600082015250565b6000611a78601f836111ae565b9150611a8382611a42565b602082019050919050565b60006020820190508181036000830152611aa781611a6b565b9050919050565b7f4e6f20776f726b65722061737369676e65640000000000000000000000000000600082015250565b6000611ae46012836111ae565b9150611aef82611aae565b602082019050919050565b60006020820190508181036000830152611b1381611ad7565b9050919050565b7f416c726561647920706169640000000000000000000000000000000000000000600082015250565b6000611b50600c836111ae565b9150611b5b82611b1a565b602082019050919050565b60006020820190508181036000830152611b7f81611b43565b9050919050565b6000611b91826110cb565b9150611b9c836110cb565b9250828202611baa816110cb565b91508282048414831517611bc157611bc06117af565b5b5092915050565b7f4e487b7100000000000000000000000000000000000000000000000000000000600052601260045260246000fd5b6000611c02826110cb565b9150611c0d836110cb565b925082611c1d57611c1c611bc8565b5b828204905092915050565b6000611c33826110cb565b9150611c3e836110cb565b9250828203905081811115611c5657611c556117af565b5b92915050565b6000611c67826110cb565b9150611c72836110cb565b9250828201905080821115611c8a57611c896117af565b5b92915050565b7f496e73756666696369656e742045544820746f206a6f696e0000000000000000600082015250565b6000611cc66018836111ae565b9150611cd182611c90565b602082019050919050565b60006020820190508181036000830152611cf581611cb9565b9050919050565b7f416c72656164792061206d656d62657200000000000000000000000000000000600082015250565b6000611d326010836111ae565b9150611d3d82611cfc565b602082019050919050565b60006020820190508181036000830152611d6181611d25565b905091905056fea2646970667358221220c829cc47dcc1ff7c881a0a53b01034084df4aded10991649b0f3fca68fb3423b64736f6c63430008130033",
  "linkReferences": {},
  "deployedLinkReferences": {}
}